:100000007DC0000097C0000095C0000093C00000B4
:1000100091C000008FC000008DC000008BC00000A8
:1000200089C0000087C000007FC10000ACC600008E
:100030004DC700007FC000007DC000007BC00000F5
:1000400079C0000077C0000075C0000073C00000D8
:1000500071C000006FC000006DC000006BC00000E8
:1000600069C0000067C0000065C0000063C00000F8
:1000700061C00000100350006500610063006F0064
:1000800063006B00000020034300680069006B0000
:10009000610073006800690020004D00690079006C
:1000A00061006D00610000000403090409023E00C4
:1000B000020100C0FA090400000102020100052447
:1000C000001001042402060524060001070582032E
:1000D0000800FF09040100020A00000007050402ED
:1000E000100005070583021000051201100102002F
:1000F0000008EB03442001000102DC0111241FBEB3
:10010000CFEFD4E0DEBFCDBF11E0A0E0B1E0E0E989
:10011000F2E102C005900D92AA33B107D9F721E0B0
:10012000AAE3B1E001C01D92A934B207E1F794D16E
:100130000C94460965CF292F33272230310559F019
:100140002330310569F02130310529F120E030E01C
:1001500080E090E029C02EE330E08CEA90E024C0FB
:1001600099278130910559F08230910571F0892BE2
:10017000B9F4E8EAF0E0249130E0CF0115C0E6E8F8
:10018000F0E0249130E0CF010FC0E4E7F0E02491EB
:1001900030E0CF0109C022E130E08AEE90E004C0F7
:1001A00020E030E080E090E0FA0191838083822FAC
:1001B000932F08955C9A00C05C980895CF93C82F40
:1001C000662311F05E9A01C05E985D98539A529A28
:1001D000519A509A589859985A985B98CC230CF495
:1001E000589AC6FD599AC5FD5A9AC4FD5B9AE2DF3A
:1001F000589859985A985B98C3FD589AC2FD599AD5
:10020000C1FD5A9AC0FD5B9AD5DF5B9A5A9A599AFA
:10021000589ACF910895882311F05E9A01C05E9894
:100220005D9A53985298519850985C9A00C04B9997
:1002300002C080E001C080E14A99806249998064EF
:10024000489980685C9800C05C9A00C04B998160B6
:100250004A99826049998460489988605C980895B9
:1002600080E0D9DF8823E4F388E090E00197F1F79C
:1002700080E0D1CFCF93C82FF3DF60E08C2F9EDFDB
:10028000CF91089581E0F6CFCF93C82FE9DFCA3030
:1002900041F4803410F480E401C080E08058EADF4B
:1002A00003C061E08C2F8ADFCF910895CF93DF9355
:1002B000EC018991882321F0E7DF89918111FCCF3E
:1002C000DF91CF9108951F93CF93DF93182F569A04
:1002D000559A549A539A529A519A509AE0E0FAEFEA
:1002E0003197F1F75A9A5B9A65DFE0E0FEE43197C7
:1002F000F1F760DFC0E0D1E0FE013197F1F75ADF9E
:10030000FE013197F1F75B9855DF2197F1F788E20D
:10031000B1DF88E0AFDFB6DF86E0ACDF812FAADF98
:10032000DF91CF911F9108951F920F920FB60F92F8
:1003300011248F939F938FE59AEE0197F1F700C0F8
:10034000000081E080933A0186B110923B019F91B9
:100350008F910F900FBE0F901F90189584B7877FD5
:1003600084BF88E10FB6F89480936000109260001B
:100370000FBE90E080E80FB6F894809361009093F0
:1003800061000FBEF1C4449A459A469AE8E6F0E04F
:10039000808182608083ECE6F0E0808187608083EA
:1003A000089584B1866084B9279A269A259A249A5A
:1003B000209A2F9A2E9A2D9A2C9A289A81E58CBDF4
:1003C00008958EBD0DB407FEFDCF8EB508958B3F09
:1003D00008F08AEF0895AF92BF92CF92DF92EF922A
:1003E000FF920F931F93CF93DF93EC0181E090E096
:1003F0009C0102C0220F331F6A95E2F7A22EA0943F
:10040000B22EC42ED52E00E010E0E12CF12C888114
:100410008A218883C8018861880F880FD2DF80E035
:10042000D0DF98819B299883D2DFF60181936F01F9
:10043000E80EF11C0F5F1F4F0730110541F78E2D9D
:100440009F2DDF91CF911F910F91FF90EF90DF9043
:10045000CF90BF90AF900895CF93DF93CDB7DEB725
:10046000AC970FB6F894DEBF0FBECDBF77DF99DF34
:100470008ADF2FEF81EE94E0215080409040E1F739
:1004800000C000008CE01FDFFDDE8BE191E00EDF9D
:100490008DE291E00BDF2FEF83ED90E32150804060
:1004A0009040E1F700C000007894FE013196CE0143
:1004B00088961192E817F907E1F70FEF0F2EFCEF7E
:1004C000EF2EF02D1EEF0F2EFDEFFF2EF02D809161
:1004D0003A01882389F008A7E9A686B182958F7032
:1004E0008AA71BA710923A0144E050E0BE01685D64
:1004F0007F4F80E091E04CD00983FA82AE014D5FDE
:100500005F4F67E085E290E066DF83509F4F8EA3E8
:100510001FA347E250E0BE016F5F7F4F80E091E094
:1005200037D080E091E09BD080E091E082D093D6FC
:10053000CECF0895089580E091E003C080E091E07F
:10054000C3C0CF93DF93EC014096E82FF92F8BE0E7
:10055000DF011D928A95E9F782E08C83898783E029
:100560008E8761E0CE010196FFD2882359F061E0C9
:10057000CE010696F9D2882339F061E0CE010B96C0
:10058000F3D203C080E001C080E0DF91CF910895F5
:100590000F931F93FB01BA01209140012430A9F46D
:1005A000DC0154960D911D912D913C915797012B93
:1005B000022B032B61F011968C918F708093E900D0
:1005C00040E050E0CF0120D103C082E001C082E0D2
:1005D0001F910F91089520914001243011F5FC01E5
:1005E0004489558966897789452B462B472BD9F055
:1005F00081818F708093E9008091F2008823A9F0B7
:10060000E8EEF0E0808190819E77908385FD0FC0B9
:1006100037D381110DC0E8EEF0E090819E77908392
:10062000089582E0089582E0089580E0089580E0D2
:10063000089520914001243089F4FC0144895589B2
:1006400066897789452B462B472B41F021812F70F6
:100650002093E9002091E80020FDBDCF089520916E
:100660004001243029F5FC01448955896689778940
:10067000452B462B472BF9F086818F708093E9003C
:100680008091E80082FF1AC08091F200882321F057
:100690002091F10030E002C02FEF3FEF8091F20097
:1006A00081110EC0E8EEF0E080818B77808308C076
:1006B0002FEF3FEF05C02FEF3FEF02C02FEF3FEFCF
:1006C000822F932F08950895CF93DF93EC018091AB
:1006D000E80083FF96C0888190E020914501309129
:1006E00046012817390709F08CC0809142018132F8
:1006F00061F020F4803209F084C036C0823209F4FF
:100700005FC0833209F07DC06EC080914101813AA3
:1007100009F077C0E8EEF0E08081877F80838081F8
:1007200080FFFDCF4C895D896E897F89E1EFF0E024
:100730004083BB27A72F962F852F8083CB01AA2725
:10074000BB278083472F5527662777274083888DCF
:100750008083898D80838A8D8083E8EEF0E08081BC
:100760008E77808368D24DC080914101813209F03B
:1007700048C0E8EEF0E08081877F808305C08091EB
:100780004001882309F43DC0808182FFF8CFE1EF6A
:10079000F0E030812081908180813C8B2D8B9E8B7D
:1007A0008F8B8081888F8081898F80818A8FE8EE0E
:1007B000F0E080818B7780833ED2CE0184DF21C040
:1007C000809141018132E9F4E8EEF0E08081877F99
:1007D000808331D28091430190914401998B888B21
:1007E000CE0171DF0EC080914101813251F4E8EEFB
:1007F000F0E08081877F80831ED260914301CE012B
:1008000062DFDF91CF9108957F928F929F92AF9296
:10081000BF92CF92DF92EF92FF920F931F93CF93ED
:10082000DF937C01EB016A012BD2782E81113EC04F
:10083000C114D10439F0F60120813181C21BD30BE0
:10084000E20EF31E209791F100E010E00F2EF8EE7B
:100850008F2E912CF02D0F2EF1EFAF2EB12CF02D0D
:10086000F401908195FD16C080818E778083C1143C
:10087000D10461F0F60180819181080F191F118365
:1008800000830F2EF5E07F2EF02D10C0F9D18823C4
:1008900049F00BC0F70181917F01F5018083219719
:1008A0000F5F1F4F2097E1F601C0782E872DDF9153
:1008B000CF911F910F91FF90EF90DF90CF90BF905D
:1008C000AF909F908F907F9008950F931F93CF9339
:1008D000DF9320914701309148012617370758F0E0
:1008E0006115710539F4E8EEF0E020812E77208360
:1008F0009B0101C09B01E0E0A8EEB0E062EF70E078
:1009000011E000E0C1EFD0E032C04091400144234B
:1009100009F441C0453009F440C04C9143FD3FC04B
:100920004C9142FD31C04C9140FF21C0FB01408100
:1009300050E02115310599F04830510580F4E82F39
:10094000F92F819188838E2F9F2F215031094F5F7E
:100950005F4F2115310519F04830510591F7E12F0E
:100960004830510509F0E02F4C914E774C932115FA
:10097000310559F6E111C9CF07C0809140018823A4
:1009800081F0853019F40FC0E8EEF0E0808182FF3D
:10099000F4CF80E009C082E007C083E005C081E0B9
:1009A00003C082E001C083E0DF91CF911F910F91DE
:1009B0000895EF92FF921F93CF93DF932091470109
:1009C000309148012617370758F06115710539F441
:1009D000E8EEF0E020812E7720839B0101C09B018F
:1009E000E82FF92F60E0A8EEB0E042EF50E071E0B0
:1009F00010E00F2EF1EFEF2EF12CF02D2EC0809194
:100A00004001882309F43DC0853009F43CC08C9135
:100A100083FD3BC08C9182FD2DC08C9180FF1DC059
:100A2000EA01888190E02115310581F08830910537
:100A300068F46491E7016883319621503109019689
:100A40002115310519F08830910599F7672F08971E
:100A500009F0612F8C918E778C932115310579F6F1
:100A60006111CDCF07C080914001882381F085308E
:100A700019F40FC0E8EEF0E0808182FFF4CF80E04F
:100A800009C082E007C083E005C081E003C082E0C6
:100A900001C083E0DF91CF911F91FF90EF90089507
:100AA0008F929F92BF92CF92DF92EF92FF920F931D
:100AB0001F93CF93DF93853070F126C0592F5F705D
:100AC000E8015883891731F0E901D8805081E401A9
:100AD000788103C05B2DD62E7C2D51FF12C04C9126
:100AE0004E7F4C9340814D7F40834C9141604C93AD
:100AF000E901D8825083E4017883E70158815523C6
:100B000044F49F5F9530D1F68F708093E90081E0C7
:100B10001FC080E01DC0982F9F709093E900982F10
:100B2000542FD62E70E0ABEEB0E0EDEEF0E02CEE00
:100B300030E00F2EF0EF8F2E912CF02D0F2EFEEEC9
:100B4000EF2EF12CF02D09EE10E0B42EC12CC5CF04
:100B5000DF91CF911F910F91FF90EF90DF90CF9099
:100B6000BF909F908F9008959F92AF92BF92CF9227
:100B7000DF92EF92FF920F931F93CF93DF93C62ED6
:100B8000662309F447C0EC018C010C5F1F4FD12C88
:100B9000B12C6894EE24E3F8F12C6894992491F830
:100BA0000F2EF6E0AF2EF02D5881552359F1F801A4
:100BB0009081E981FA81D80111976C91852F8F700E
:100BC000853050F5923010F04A2D01C0492DE930A2
:100BD000F10548F097019B2D9F5F220F331F2E17C1
:100BE0003F07D0F301C09B2D9295907F492B6295D2
:100BF000660F660F607C551F5527551F652B50DF0C
:100C0000882361F0D39425960B5F1F4FDC10CCCF67
:100C100081E005C081E003C080E001C080E0DF9199
:100C2000CF911F910F91FF90EF90DF90CF90BF90E9
:100C3000AF909F900895809141018823B4F405C03E
:100C400080914001811103C00895E8EEF0E08081B9
:100C500082FFF6CFE8EEF0E080818B778083089505
:100C600080914001811103C00895E8EEF0E0808199
:100C700080FFF6CFE8EEF0E080818E7780830895E4
:100C80000F931F93CF93DF932091E4003091E50001
:100C900065E6ACEEB0E0E8EEF0E00BEE10E044EE1E
:100CA00050E08C9180FD20C023C0809140018823BA
:100CB00089F0853089F0E801888185FD0FC0EA015F
:100CC000888199812817390761F361509C0149F7A0
:100CD00084E012C082E010C083E00EC081E00CC04E
:100CE00080E00AC080E008C0808180FFDECFF8CFBE
:100CF000808182FFDACFF6CFDF91CF911F910F91E4
:100D000008953BD03DD0E8EDF0E080818F7780837F
:100D100080818068808380818F7D808384E089BD2D
:100D200086E089BD09B400FEFDCF1092400110920B
:100D30003C0110923E0110923D0142E060E080E0F3
:100D4000AFDEE1EEF0E080818E7F8083E2EEF0E0C6
:100D5000808181608083808188608083E0EEF0E024
:100D600080818E7F80830895E3E6F0E080818E7F2E
:100D7000808381E080933F01C4CF1092E200089508
:100D80001092E10008951F920F920FB60F92112456
:100D90002F933F934F935F936F937F938F939F9383
:100DA000AF93BF93EF93FF938091E10082FF0AC05E
:100DB0008091E20082FF06C0E1EEF0E080818B7F4F
:100DC000808348D28091E10080FF15C08091E200CD
:100DD00080FF11C0E2EEF0E080818E7F8083808111
:100DE00080618083E8EDF0E080818062808319BCBF
:100DF000109240019FDB8091E10084FF2FC0809121
:100E0000E20084FF2BC084E089BD86E089BD09B47F
:100E100000FEFDCFE8EDF0E080818F7D8083E1EE84
:100E2000F0E080818F7E8083E2EEF0E080818F7E33
:100E3000808380818160808380913C01882321F0C0
:100E400084E08093400109C08091E300882314F47A
:100E500083E001C081E0809340016BDB8091E10081
:100E600083FF23C08091E20083FF1FC0E1EEF0E02A
:100E70008081877F808382E08093400110923C01D3
:100E800080818E7F8083E2EEF0E080818E7F8083A0
:100E900080818061808342E060E080E001DEE0EFFD
:100EA000F0E0808188608083D5D1FF91EF91BF9180
:100EB000AF919F918F917F916F915F914F913F91F2
:100EC0002F910F900FBE0F901F9018951F920F92A9
:100ED0000FB60F921124FF920F931F932F933F93FE
:100EE0004F935F936F937F938F939F93AF93BF9332
:100EF000CF93DF93EF93FF938091E9008F709091F0
:100F0000EC0090FF02C090E801C090E0F92EF82AB2
:100F100009EE10E0F8011082C0EFD0E08881877FF1
:100F2000888378941ED0F801108288818860888335
:100F30008F2D8F708083FF91EF91DF91CF91BF91C3
:100F4000AF919F918F917F916F915F914F913F9161
:100F50002F911F910F91FF900F900FBE0F901F9038
:100F600018950F931F93CF93DF93CDB7DEB7AC9750
:100F70000FB6F894DEBF0FBECDBFE1E4F1E0A1EF04
:100F8000B0E08C91819321E0E934F207D1F7D6DA11
:100F90008091E80083FF39C1909141018091420125
:100FA000853009F481C038F48130D1F170F083309C
:100FB00009F02BC135C0883009F4F5C0893009F437
:100FC00002C1863009F021C196C0903821F09238D4
:100FD00009F01BC108C080913D0190913E01992309
:100FE00089F082600FC080914501909146018F7019
:100FF0009927E9EEF0E080838091EB0085FB88275C
:1010000080F91082E8EEF0E09081977F9083A1EF65
:10101000B0E08C931C9280818E7780830CDEF5C0CB
:10102000992309F401C1923009F0EFC002C191E0A7
:10103000833009F090E090933E012DC080914501EE
:10104000909146018F709927882309F4DEC0809320
:10105000E9002091EB0020FF1EC0209142012330C7
:1010600031F4EBEEF0E080818062808314C0EBEE1F
:10107000F0E090819061908321E030E0A90102C00E
:10108000440F551F8A95E2F7AAEEB0E04C931C92EC
:101090008081886080831092E900E8EEF0E0808132
:1010A000877F8083C8DDB1C09111AFC080914301BB
:1010B000909144018F779927182FE3EEF0E090810B
:1010C0009078892B8083E8EEF0E08081877F8083B1
:1010D000B2DDE8EEF0E0808180FFFDCFE3EEF0E0EE
:1010E000808180688083112311F083E001C082E059
:1010F000809340018AC09058923008F086C0809159
:101100004301909144018C3D53E0950799F583E0AC
:101110008A838AE289835FB7F894DE01139620E020
:101120003EE041E2E32FF0E040935700849120FF3E
:1011300003C082958F703F5F8F708A3018F090E007
:10114000C79602C090E0C0968D939D932F5F243187
:1011500049F75FBF08EE10E0F8018081877F808348
:101160006AE270E0CE010196B0DBF80180818B77F6
:1011700080834BC0AE01455D5F4F609145010E9489
:101180009B00009709F441C008EE10E0F8012081AF
:10119000277F2083BC018BA59CA50BDCF8018081F7
:1011A0008B77808332C0903881F5E8EEF0E0808163
:1011B000877F808380913C018093F10080818E77CE
:1011C000808339DD22C0911120C08091430182309B
:1011D000E0F4E8EEF0E08081877F80838091430136
:1011E00080933C0128DD80913C01882321F084E03C
:1011F0008093400109C08091E300882314F484E0C7
:1012000001C081E08093400196D98091E80083FF7E
:1012100016C0E8EEF0E08081877F8083EBEEF0E09F
:101220008081806280830BC090914301913069F787
:10123000FECE80914301882309F400CF2CCFAC96D9
:101240000FB6F894DEBF0FBECDBFDF91CF911F91D7
:101250000F9108950895CF93809140018823A1F0C4
:10126000C091E900CF708091EC0080FF02C080E85F
:1012700001C080E0C82B1092E9008091E80083FD56
:1012800070DECF70C093E900CF910895F894FFCF3E
:10129000008310000001041000000182080000011A
:1012A0000000000000000000000000506561636F56
:1012B000636B207665722E20302E330A006279200F
:0A12C000432E4D6979616D61000055
:00000001FF
